{
  "transactions": [
    {
      "hash": "0x32670bbea79f6bc70c750f448ece5a59d55b05d865e3890059236afdacf67c07",
      "transactionType": "CALL",
      "contractName": null,
      "contractAddress": "0x412d89ae7deeff4dcc96d229edb34b57a83b5982",
      "function": "authorizeIssuer(address,string)",
      "arguments": [
        "0xf39Fd6e51aad88F6F4ce6aB8827279cffFb92266",
        "Rishu"
      ],
      "transaction": {
        "from": "0x26efd260dbe98a8f7f44555b29079d93698119be",
        "to": "0x412d89ae7deeff4dcc96d229edb34b57a83b5982",
        "gas": "0x189b2",
        "value": "0x0",
        "input": "0x7f8d3a3c000000000000000000000000f39fd6e51aad88f6f4ce6ab8827279cfffb92266000000000000000000000000000000000000000000000000000000000000004000000000000000000000000000000000000000000000000000000000000000055269736875000000000000000000000000000000000000000000000000000000",
        "nonce": "0x4b",
        "chainId": "0x13882"
      },
      "additionalContracts": [],
      "isFixedGasLimit": false
    }
  ],
  "receipts": [
    {
      "status": "0x1",
      "cumulativeGasUsed": "0x11d08",
      "logs": [
        {
          "address": "0x412d89ae7deeff4dcc96d229edb34b57a83b5982",
          "topics": [
            "0x4a1726c837046486d7e0af20814f9e585c72cfaa1c46e87414677bc7baab9be2",
            "0x000000000000000000000000f39fd6e51aad88f6f4ce6ab8827279cfffb92266"
          ],
          "data": "0x000000000000000000000000000000000000000000000000000000000000002000000000000000000000000000000000000000000000000000000000000000055269736875000000000000000000000000000000000000000000000000000000",
          "blockHash": "0x0d55afa79716905416fe4b0e8382422131b72213efad18951d266fe35782da04",
          "blockNumber": "0x21dea13",
          "blockTimestamp": "0x69bf7e21",
          "transactionHash": "0x32670bbea79f6bc70c750f448ece5a59d55b05d865e3890059236afdacf67c07",
          "transactionIndex": "0x0",
          "logIndex": "0x0",
          "removed": false
        },
        {
          "address": "0x0000000000000000000000000000000000001010",
          "topics": [
            "0x4dfe1bbbcf077ddc3e01291eea2d5c70c2b422b415d95645b9adcfd678cb1d63",
            "0x0000000000000000000000000000000000000000000000000000000000001010",
            "0x00000000000000000000000026efd260dbe98a8f7f44555b29079d93698119be",
            "0x0000000000000000000000007ee41d8a25641000661b1ef5e6ae8a00400466b0"
          ],
          "data": "0x0000000000000000000000000000000000000000000000000015b84821b8a8a80000000000000000000000000000000000000000000000000486952c329c589200000000000000000000000000000000000000000000305dc8743ab3b0f7db430000000000000000000000000000000000000000000000000470dce410e3afea00000000000000000000000000000000000000000000305dc889f2fbd2b083eb",
          "blockHash": "0x0d55afa79716905416fe4b0e8382422131b72213efad18951d266fe35782da04",
          "blockNumber": "0x21dea13",
          "blockTimestamp": "0x69bf7e21",
          "transactionHash": "0x32670bbea79f6bc70c750f448ece5a59d55b05d865e3890059236afdacf67c07",
          "transactionIndex": "0x0",
          "logIndex": "0x1",
          "removed": false
        }
      ],
      "logsBloom": "0x00000000000000000000000000000000000000000000000000000000000000000000000000000000000000000001000000008000000100000000000000000000000000000000000100000040000000800000000030000000000100000000000000000000000000000000000100004000000000000000000080000000000000000000000000000000020000400400000000000000000000000000000000000000200000000000000000000000000000000000000000000000000000000000004000000000000010200001000000000000000000402000000000100000000000000000000000000000000000000000000000000000000000000000000000100000",
      "type": "0x2",
      "transactionHash": "0x32670bbea79f6bc70c750f448ece5a59d55b05d865e3890059236afdacf67c07",
      "transactionIndex": "0x0",
      "blockHash": "0x0d55afa79716905416fe4b0e8382422131b72213efad18951d266fe35782da04",
      "blockNumber": "0x21dea13",
      "gasUsed": "0x11d08",
      "effectiveGasPrice": "0x1381f37d34",
      "blobGasUsed": "0x0",
      "from": "0x26efd260dbe98a8f7f44555b29079d93698119be",
      "to": "0x412d89ae7deeff4dcc96d229edb34b57a83b5982",
      "contractAddress": null
    }
  ],
  "libraries": [],
  "pending": [],
  "returns": {},
  "timestamp": 1774157345573,
  "chain": 80002,
  "commit": "a09ed97"
}